{
  "contractName": "carService",
  "abi": [
    {
      "inputs": [],
      "payable": false,
      "stateMutability": "nonpayable",
      "type": "constructor"
    },
    {
      "constant": false,
      "inputs": [
        {
          "name": "xID",
          "type": "bytes32"
        },
        {
          "name": "status",
          "type": "uint8"
        },
        {
          "name": "time",
          "type": "bytes8"
        }
      ],
      "name": "updateStatus",
      "outputs": [
        {
          "name": "status_",
          "type": "uint8"
        }
      ],
      "payable": false,
      "stateMutability": "nonpayable",
      "type": "function"
    },
    {
      "constant": false,
      "inputs": [
        {
          "name": "xID",
          "type": "bytes32"
        },
        {
          "name": "newLoc",
          "type": "bytes32"
        }
      ],
      "name": "updateLoc",
      "outputs": [
        {
          "name": "status_",
          "type": "uint8"
        }
      ],
      "payable": false,
      "stateMutability": "nonpayable",
      "type": "function"
    },
    {
      "constant": true,
      "inputs": [
        {
          "name": "xID",
          "type": "bytes32"
        }
      ],
      "name": "readStatusAndTimes",
      "outputs": [
        {
          "name": "",
          "type": "uint8"
        },
        {
          "name": "",
          "type": "bytes8"
        },
        {
          "name": "",
          "type": "bytes8"
        },
        {
          "name": "",
          "type": "bytes8"
        }
      ],
      "payable": false,
      "stateMutability": "view",
      "type": "function"
    },
    {
      "constant": true,
      "inputs": [
        {
          "name": "xID",
          "type": "bytes32"
        }
      ],
      "name": "readStatusTimesLength",
      "outputs": [
        {
          "name": "",
          "type": "uint8"
        },
        {
          "name": "",
          "type": "bytes8"
        },
        {
          "name": "",
          "type": "bytes8"
        },
        {
          "name": "",
          "type": "bytes8"
        },
        {
          "name": "",
          "type": "uint256"
        }
      ],
      "payable": false,
      "stateMutability": "view",
      "type": "function"
    },
    {
      "constant": true,
      "inputs": [
        {
          "name": "xID",
          "type": "bytes32"
        }
      ],
      "name": "readLocListLength",
      "outputs": [
        {
          "name": "length_",
          "type": "uint256"
        }
      ],
      "payable": false,
      "stateMutability": "view",
      "type": "function"
    },
    {
      "constant": true,
      "inputs": [
        {
          "name": "xID",
          "type": "bytes32"
        },
        {
          "name": "index",
          "type": "uint256"
        }
      ],
      "name": "readLocListByIndex",
      "outputs": [
        {
          "name": "event_",
          "type": "bytes32"
        }
      ],
      "payable": false,
      "stateMutability": "view",
      "type": "function"
    },
    {
      "constant": true,
      "inputs": [
        {
          "name": "xID",
          "type": "bytes32"
        }
      ],
      "name": "readLocLists",
      "outputs": [
        {
          "name": "event_",
          "type": "bytes32[]"
        }
      ],
      "payable": false,
      "stateMutability": "view",
      "type": "function"
    },
    {
      "constant": false,
      "inputs": [],
      "name": "destroy",
      "outputs": [],
      "payable": false,
      "stateMutability": "nonpayable",
      "type": "function"
    }
  ],
  "bytecode": "0x608060405234801561001057600080fd5b50336000806101000a81548173ffffffffffffffffffffffffffffffffffffffff021916908373ffffffffffffffffffffffffffffffffffffffff16021790555061143a806100606000396000f30060806040526004361061008e576000357c0100000000000000000000000000000000000000000000000000000000900463ffffffff16806317548a6f1461009357806322f7b5e0146101a4578063611fcbe91461022a5780636c5dc748146102af57806383197ef0146103105780639d8f4a3814610327578063b7e677c514610431578063fafdd65314610488575b600080fd5b34801561009f57600080fd5b506100c260048036038101908080356000191690602001909291905050506104cd565b604051808660028111156100d257fe5b60ff1681526020018577ffffffffffffffffffffffffffffffffffffffffffffffff191677ffffffffffffffffffffffffffffffffffffffffffffffff191681526020018477ffffffffffffffffffffffffffffffffffffffffffffffff191677ffffffffffffffffffffffffffffffffffffffffffffffff191681526020018377ffffffffffffffffffffffffffffffffffffffffffffffff191677ffffffffffffffffffffffffffffffffffffffffffffffff191681526020018281526020019550505050505060405180910390f35b3480156101b057600080fd5b506101d36004803603810190808035600019169060200190929190505050610640565b6040518080602001828103825283818151815260200191508051906020019060200280838360005b838110156102165780820151818401526020810190506101fb565b505050509050019250505060405180910390f35b34801561023657600080fd5b5061028b6004803603810190808035600019169060200190929190803560ff169060200190929190803577ffffffffffffffffffffffffffffffffffffffffffffffff191690602001909291905050506106f3565b6040518082600281111561029b57fe5b60ff16815260200191505060405180910390f35b3480156102bb57600080fd5b506102ec60048036038101908080356000191690602001909291908035600019169060200190929190505050611015565b604051808260028111156102fc57fe5b60ff16815260200191505060405180910390f35b34801561031c57600080fd5b506103256110b1565b005b34801561033357600080fd5b506103566004803603810190808035600019169060200190929190505050611142565b6040518085600281111561036657fe5b60ff1681526020018477ffffffffffffffffffffffffffffffffffffffffffffffff191677ffffffffffffffffffffffffffffffffffffffffffffffff191681526020018377ffffffffffffffffffffffffffffffffffffffffffffffff191677ffffffffffffffffffffffffffffffffffffffffffffffff191681526020018277ffffffffffffffffffffffffffffffffffffffffffffffff191677ffffffffffffffffffffffffffffffffffffffffffffffff1916815260200194505050505060405180910390f35b34801561043d57600080fd5b5061046a60048036038101908080356000191690602001909291908035906020019092919050505061128d565b60405180826000191660001916815260200191505060405180910390f35b34801561049457600080fd5b506104b76004803603810190808035600019169060200190929190505050611332565b6040518082815260200191505060405180910390f35b60008060008060006001151560016000886000191660001916815260200190815260200160002060020160009054906101000a900460ff16151514156106365760016000876000191660001916815260200190815260200160002060000160009054906101000a900460ff1660016000886000191660001916815260200190815260200160002060000160019054906101000a900478010000000000000000000000000000000000000000000000000260016000896000191660001916815260200190815260200160002060000160099054906101000a9004780100000000000000000000000000000000000000000000000002600160008a6000191660001916815260200190815260200160002060000160119054906101000a9004780100000000000000000000000000000000000000000000000002600160008b600019166000191681526020019081526020016000206001018054905094509450945094509450610637565b5b91939590929450565b60606001151560016000846000191660001916815260200190815260200160002060020160009054906101000a900460ff16151514156106ee576001600083600019166000191681526020019081526020016000206001018054806020026020016040519081016040528092919081815260200182805480156106e657602002820191906000526020600020905b815460001916815260200190600101908083116106ce575b505050505090505b919050565b60006060600091506000600281111561070857fe5b84600281111561071457fe5b14156109ff576001151560016000876000191660001916815260200190815260200160002060020160009054906101000a900460ff16151514156107ed578360016000876000191660001916815260200190815260200160002060000160006101000a81548160ff0219169083600281111561078c57fe5b02179055508260016000876000191660001916815260200190815260200160002060000160016101000a81548167ffffffffffffffff02191690837801000000000000000000000000000000000000000000000000900402179055506109fa565b60c06040519081016040528085600281111561080557fe5b81526020018477ffffffffffffffffffffffffffffffffffffffffffffffff19168152602001600078010000000000000000000000000000000000000000000000000277ffffffffffffffffffffffffffffffffffffffffffffffff19168152602001600078010000000000000000000000000000000000000000000000000277ffffffffffffffffffffffffffffffffffffffffffffffff191681526020018281526020016001151581525060016000876000191660001916815260200190815260200160002060008201518160000160006101000a81548160ff021916908360028111156108f157fe5b021790555060208201518160000160016101000a81548167ffffffffffffffff021916908378010000000000000000000000000000000000000000000000009004021790555060408201518160000160096101000a81548167ffffffffffffffff021916908378010000000000000000000000000000000000000000000000009004021790555060608201518160000160116101000a81548167ffffffffffffffff021916908378010000000000000000000000000000000000000000000000009004021790555060808201518160010190805190602001906109d5929190611396565b5060a08201518160020160006101000a81548160ff0219169083151502179055509050505b61100d565b600280811115610a0b57fe5b846002811115610a1757fe5b1415610d02576001151560016000876000191660001916815260200190815260200160002060020160009054906101000a900460ff1615151415610af0578360016000876000191660001916815260200190815260200160002060000160006101000a81548160ff02191690836002811115610a8f57fe5b02179055508260016000876000191660001916815260200190815260200160002060000160096101000a81548167ffffffffffffffff0219169083780100000000000000000000000000000000000000000000000090040217905550610cfd565b60c060405190810160405280856002811115610b0857fe5b8152602001600078010000000000000000000000000000000000000000000000000277ffffffffffffffffffffffffffffffffffffffffffffffff191681526020018477ffffffffffffffffffffffffffffffffffffffffffffffff19168152602001600078010000000000000000000000000000000000000000000000000277ffffffffffffffffffffffffffffffffffffffffffffffff191681526020018281526020016001151581525060016000876000191660001916815260200190815260200160002060008201518160000160006101000a81548160ff02191690836002811115610bf457fe5b021790555060208201518160000160016101000a81548167ffffffffffffffff021916908378010000000000000000000000000000000000000000000000009004021790555060408201518160000160096101000a81548167ffffffffffffffff021916908378010000000000000000000000000000000000000000000000009004021790555060608201518160000160116101000a81548167ffffffffffffffff02191690837801000000000000000000000000000000000000000000000000900402179055506080820151816001019080519060200190610cd8929190611396565b5060a08201518160020160006101000a81548160ff0219169083151502179055509050505b61100c565b60016002811115610d0f57fe5b846002811115610d1b57fe5b1415611006576001151560016000876000191660001916815260200190815260200160002060020160009054906101000a900460ff1615151415610df4578360016000876000191660001916815260200190815260200160002060000160006101000a81548160ff02191690836002811115610d9357fe5b02179055508260016000876000191660001916815260200190815260200160002060000160116101000a81548167ffffffffffffffff0219169083780100000000000000000000000000000000000000000000000090040217905550611001565b60c060405190810160405280856002811115610e0c57fe5b8152602001600078010000000000000000000000000000000000000000000000000277ffffffffffffffffffffffffffffffffffffffffffffffff19168152602001600078010000000000000000000000000000000000000000000000000277ffffffffffffffffffffffffffffffffffffffffffffffff191681526020018477ffffffffffffffffffffffffffffffffffffffffffffffff191681526020018281526020016001151581525060016000876000191660001916815260200190815260200160002060008201518160000160006101000a81548160ff02191690836002811115610ef857fe5b021790555060208201518160000160016101000a81548167ffffffffffffffff021916908378010000000000000000000000000000000000000000000000009004021790555060408201518160000160096101000a81548167ffffffffffffffff021916908378010000000000000000000000000000000000000000000000009004021790555060608201518160000160116101000a81548167ffffffffffffffff02191690837801000000000000000000000000000000000000000000000000900402179055506080820151816001019080519060200190610fdc929190611396565b5060a08201518160020160006101000a81548160ff0219169083151502179055509050505b61100b565b600191505b5b5b509392505050565b60006001151560016000856000191660001916815260200190815260200160002060020160009054906101000a900460ff16151514156110a657600160008460001916600019168152602001908152602001600020600101829080600181540180825580915050906001820390600052602060002001600090919290919091509060001916905550600090506110ab565b600290505b92915050565b6000809054906101000a900473ffffffffffffffffffffffffffffffffffffffff1673ffffffffffffffffffffffffffffffffffffffff163373ffffffffffffffffffffffffffffffffffffffff161415611140576000809054906101000a900473ffffffffffffffffffffffffffffffffffffffff1673ffffffffffffffffffffffffffffffffffffffff16ff5b565b6000806000806001151560016000876000191660001916815260200190815260200160002060020160009054906101000a900460ff16151514156112855760016000866000191660001916815260200190815260200160002060000160009054906101000a900460ff1660016000876000191660001916815260200190815260200160002060000160019054906101000a900478010000000000000000000000000000000000000000000000000260016000886000191660001916815260200190815260200160002060000160099054906101000a900478010000000000000000000000000000000000000000000000000260016000896000191660001916815260200190815260200160002060000160119054906101000a90047801000000000000000000000000000000000000000000000000029350935093509350611286565b5b9193509193565b600081600160008560001916600019168152602001908152602001600020600101805490501180156112ee57506001151560016000856000191660001916815260200190815260200160002060020160009054906101000a900460ff161515145b1561132c576001600084600019166000191681526020019081526020016000206001018281548110151561131e57fe5b906000526020600020015490505b92915050565b60006001151560016000846000191660001916815260200190815260200160002060020160009054906101000a900460ff1615151415611391576001600083600019166000191681526020019081526020016000206001018054905090505b919050565b8280548282559060005260206000209081019282156113d8579160200282015b828111156113d75782518290600019169055916020019190600101906113b6565b5b5090506113e591906113e9565b5090565b61140b91905b808211156114075760008160009055506001016113ef565b5090565b905600a165627a7a72305820d51e131e6a1781a60ebda8a9dda682c6aa010a95f7fd16e1e5914d5ae99951d10029",
  "source": "pragma solidity >=0.4.16 <0.6.0;\n\ncontract carService {\n//    address payable organizer;\n    address organizer;\n\n    enum OperationStatus {Sucess, FailWrongParameter, FailNotExist}\n    enum ContractStatus {Booked, Inuse, Completed}\n\n    struct carSession {\n        ContractStatus status;\n        bytes8     bookTime;\n        bytes8     lockTime;\n        bytes8     unlockTime;\n        bytes32[] locList;\n\n        bool      isValid; // internal use\n    }\n\n    mapping(bytes32 => carSession) sessionRecords;\n\n\n\t/*function initSession(bytes32 xID, uint8 status, bytes8 bookTime) public returns (OperationStatus status_) {\n\t    status_ = OperationStatus.Sucess;\n\t    if (sessionRecords[xID].isValid == true) {\n\t        status_ = OperationStatus.FailExist;\n\t    } else if (bookTime <= 0) {\n\t        status_ = OperationStatus.FailWrongParameter;\n\t    } else {\n\t        sessionRecords[xID] = carSession(status,\n                                                 bookTime,\n                                                 0x0000000000000000,\n                                                 0x0000000000000000,\n                                                 0,\n                                                 true);\n\t        status_ = OperationStatus.Sucess;\n\t    }\n\t}*/\n\n\tfunction updateStatus(bytes32 xID, ContractStatus status, bytes8 time) public returns (OperationStatus status_) {\n            bytes32[] memory dummy;\n\t    status_ = OperationStatus.Sucess;\n\n\t    if(status == ContractStatus.Booked) {\n\t        if (sessionRecords[xID].isValid == true) {\n\t            sessionRecords[xID].status = status;\n\t            sessionRecords[xID].bookTime = time;\n\t            //carSession newSession = sessionRecords[xID];\n\t            //newSession.status = status;\n\t            //newSession.bookTime = time;\n\t            //sessionRecords[xID] = newSession;\n\t        } else {\n\t            sessionRecords[xID] = carSession(status,\n                                                     time,\n                                                     0x0000000000000000,\n                                                     0x0000000000000000,\n                                                     dummy,\n                                                     true);\n\t        }\n\t        \n\t    } else if (status == ContractStatus.Completed) {\n\t        if (sessionRecords[xID].isValid == true) {\n\t            sessionRecords[xID].status = status;\n\t            sessionRecords[xID].lockTime = time;\n\t        } else {\n\t            sessionRecords[xID] = carSession(status,\n                                                     0x0000000000000000,\n                                                     time,\n                                                     0x0000000000000000,\n                                                     dummy,\n                                                     true);\n\t        }\n\t        \n\t    } else if (status == ContractStatus.Inuse) {\n\t        if (sessionRecords[xID].isValid == true) {\n\t            sessionRecords[xID].status = status;\n\t            sessionRecords[xID].unlockTime = time;\n\t        } else {\n\t            sessionRecords[xID] = carSession(status,\n                                                     0x0000000000000000,\n                                                     0x0000000000000000,\n                                                     time,\n                                                     dummy,\n                                                     true);\n\t        }\n\t        \n\t    } else {\n\t        status_ = OperationStatus.FailWrongParameter;\n\t    }\n    }\n\n    function updateLoc(bytes32 xID, bytes32 newLoc) public returns (OperationStatus status_){\n        \n        if (sessionRecords[xID].isValid == true) {\n            sessionRecords[xID].locList.push(newLoc);\n            status_ = OperationStatus.Sucess;\n        } else {\n            status_ = OperationStatus.FailNotExist;\n        }\n    }\n\n\n    /////////////////////////////////////////////////////////////////////////////\n    ////////////////////////constant view functions//////////////////////////////\n    function readStatusAndTimes(bytes32 xID) public view returns (ContractStatus, bytes8, bytes8, bytes8) {\n        if (sessionRecords[xID].isValid == true) {\n            return (sessionRecords[xID].status, sessionRecords[xID].bookTime, sessionRecords[xID].lockTime, sessionRecords[xID].unlockTime);\n        }\n    }\n\n    function readStatusTimesLength(bytes32 xID) public view returns (ContractStatus, bytes8, bytes8, bytes8, uint) {\n        if (sessionRecords[xID].isValid == true) {\n            return (sessionRecords[xID].status, sessionRecords[xID].bookTime, sessionRecords[xID].lockTime, sessionRecords[xID].unlockTime, sessionRecords[xID].locList.length);\n        }\n    }\n\n    \n    function readLocListLength(bytes32 xID) public view returns (uint length_) {\n        if (sessionRecords[xID].isValid == true) {\n            length_ = sessionRecords[xID].locList.length;\n        }\n    }\n\n    function readLocListByIndex(bytes32 xID, uint index) public view returns (bytes32 event_) { \n        if((sessionRecords[xID].locList.length > index) && (sessionRecords[xID].isValid == true)) {\n\t\t\tevent_ = sessionRecords[xID].locList[index];\n        }\n    }\n\n\n    function readLocLists(bytes32 xID) public view returns (bytes32[] memory event_) { \n        if(sessionRecords[xID].isValid == true) {\n            event_ = sessionRecords[xID].locList;\n        }\n    }\n\n\n\n\n\n    constructor () public {\n\t    organizer = msg.sender;\n\t}\n\n    function destroy() public {\n        if (msg.sender == organizer) { \n            selfdestruct(organizer);\n        }\n    }\n}\n",
  "sourcePath": "/home/gary/Project/boat/boatwallet.hackathon2019/contracts/carService/contracts/carService.sol",
  "compiler": {
    "name": "solc",
    "version": "0.4.24+commit.e67f0147.Emscripten.clang"
  },
  "schemaVersion": "2.0.1",
  "updatedAt": "2019-09-13T05:31:37.097Z"
}